{
  "contractName": "Decentragram",
  "abi": [
    {
      "anonymous": false,
      "inputs": [
        {
          "indexed": false,
          "internalType": "uint256",
          "name": "id",
          "type": "uint256"
        },
        {
          "indexed": false,
          "internalType": "string",
          "name": "hash",
          "type": "string"
        },
        {
          "indexed": false,
          "internalType": "string",
          "name": "description",
          "type": "string"
        },
        {
          "indexed": false,
          "internalType": "uint256",
          "name": "tipAmount",
          "type": "uint256"
        },
        {
          "indexed": false,
          "internalType": "address payable",
          "name": "author",
          "type": "address"
        }
      ],
      "name": "ImageCreated",
      "type": "event"
    },
    {
      "anonymous": false,
      "inputs": [
        {
          "indexed": false,
          "internalType": "uint256",
          "name": "id",
          "type": "uint256"
        },
        {
          "indexed": false,
          "internalType": "string",
          "name": "hash",
          "type": "string"
        },
        {
          "indexed": false,
          "internalType": "string",
          "name": "description",
          "type": "string"
        },
        {
          "indexed": false,
          "internalType": "uint256",
          "name": "tipAmount",
          "type": "uint256"
        },
        {
          "indexed": false,
          "internalType": "address payable",
          "name": "author",
          "type": "address"
        }
      ],
      "name": "ImageTipped",
      "type": "event"
    },
    {
      "inputs": [],
      "name": "imageCount",
      "outputs": [
        {
          "internalType": "uint256",
          "name": "",
          "type": "uint256"
        }
      ],
      "stateMutability": "view",
      "type": "function",
      "constant": true
    },
    {
      "inputs": [
        {
          "internalType": "uint256",
          "name": "",
          "type": "uint256"
        }
      ],
      "name": "images",
      "outputs": [
        {
          "internalType": "uint256",
          "name": "id",
          "type": "uint256"
        },
        {
          "internalType": "string",
          "name": "hash",
          "type": "string"
        },
        {
          "internalType": "string",
          "name": "description",
          "type": "string"
        },
        {
          "internalType": "uint256",
          "name": "tipAmount",
          "type": "uint256"
        },
        {
          "internalType": "address payable",
          "name": "author",
          "type": "address"
        }
      ],
      "stateMutability": "view",
      "type": "function",
      "constant": true
    },
    {
      "inputs": [],
      "name": "name",
      "outputs": [
        {
          "internalType": "string",
          "name": "",
          "type": "string"
        }
      ],
      "stateMutability": "view",
      "type": "function",
      "constant": true
    },
    {
      "inputs": [
        {
          "internalType": "string",
          "name": "_imgHash",
          "type": "string"
        },
        {
          "internalType": "string",
          "name": "_description",
          "type": "string"
        }
      ],
      "name": "uploadImage",
      "outputs": [],
      "stateMutability": "nonpayable",
      "type": "function"
    },
    {
      "inputs": [
        {
          "internalType": "uint256",
          "name": "_id",
          "type": "uint256"
        }
      ],
      "name": "tipImageOwner",
      "outputs": [],
      "stateMutability": "payable",
      "type": "function",
      "payable": true
    }
  ],
  "bytecode": "0x60806040526040518060400160405280600c81526020017f446563656e7472616772616d000000000000000000000000000000000000000081525060009080519060200190620000519291906200006b565b5060006001553480156200006457600080fd5b5062000180565b82805462000079906200011b565b90600052602060002090601f0160209004810192826200009d5760008555620000e9565b82601f10620000b857805160ff1916838001178555620000e9565b82800160010185558215620000e9579182015b82811115620000e8578251825591602001919060010190620000cb565b5b509050620000f89190620000fc565b5090565b5b8082111562000117576000816000905550600101620000fd565b5090565b600060028204905060018216806200013457607f821691505b602082108114156200014b576200014a62000151565b5b50919050565b7f4e487b7100000000000000000000000000000000000000000000000000000000600052602260045260246000fd5b610ea580620001906000396000f3fe60806040526004361061004a5760003560e01c806306fdde031461004f578063848564821461007a5780638567ade8146100bb57806392053b63146100d7578063a91b831414610102575b600080fd5b34801561005b57600080fd5b5061006461012b565b6040516100719190610abd565b60405180910390f35b34801561008657600080fd5b506100a1600480360381019061009c91906109ee565b6101b9565b6040516100b2959493929190610b7b565b60405180910390f35b6100d560048036038101906100d091906109ee565b61031f565b005b3480156100e357600080fd5b506100ec61064f565b6040516100f99190610aff565b60405180910390f35b34801561010e57600080fd5b5061012960048036038101906101249190610982565b610655565b005b6000805461013890610d3f565b80601f016020809104026020016040519081016040528092919081815260200182805461016490610d3f565b80156101b15780601f10610186576101008083540402835291602001916101b1565b820191906000526020600020905b81548152906001019060200180831161019457829003601f168201915b505050505081565b60026020528060005260406000206000915090508060000154908060010180546101e290610d3f565b80601f016020809104026020016040519081016040528092919081815260200182805461020e90610d3f565b801561025b5780601f106102305761010080835404028352916020019161025b565b820191906000526020600020905b81548152906001019060200180831161023e57829003601f168201915b50505050509080600201805461027090610d3f565b80601f016020809104026020016040519081016040528092919081815260200182805461029c90610d3f565b80156102e95780601f106102be576101008083540402835291602001916102e9565b820191906000526020600020905b8154815290600101906020018083116102cc57829003601f168201915b5050505050908060030154908060040160009054906101000a900473ffffffffffffffffffffffffffffffffffffffff16905085565b60008111801561033157506001548111155b61033a57600080fd5b6000600260008381526020019081526020016000206040518060a00160405290816000820154815260200160018201805461037490610d3f565b80601f01602080910402602001604051908101604052809291908181526020018280546103a090610d3f565b80156103ed5780601f106103c2576101008083540402835291602001916103ed565b820191906000526020600020905b8154815290600101906020018083116103d057829003601f168201915b5050505050815260200160028201805461040690610d3f565b80601f016020809104026020016040519081016040528092919081815260200182805461043290610d3f565b801561047f5780601f106104545761010080835404028352916020019161047f565b820191906000526020600020905b81548152906001019060200180831161046257829003601f168201915b50505050508152602001600382015481526020016004820160009054906101000a900473ffffffffffffffffffffffffffffffffffffffff1673ffffffffffffffffffffffffffffffffffffffff1673ffffffffffffffffffffffffffffffffffffffff168152505090506000816080015190508073ffffffffffffffffffffffffffffffffffffffff166108fc349081150290604051600060405180830381858888f19350505050158015610539573d6000803e3d6000fd5b5034826060015161054a9190610c59565b826060018181525050816002600085815260200190815260200160002060008201518160000155602082015181600101908051906020019061058d929190610862565b5060408201518160020190805190602001906105aa929190610862565b506060820151816003015560808201518160040160006101000a81548173ffffffffffffffffffffffffffffffffffffffff021916908373ffffffffffffffffffffffffffffffffffffffff1602179055509050507f1be5317bca8d3f70dc1efe89958be71bff36cdca33fc00a6423e25eb2f1d492f8383602001518460400151856060015185604051610642959493929190610b7b565b60405180910390a1505050565b60015481565b6000815111610699576040517f08c379a000000000000000000000000000000000000000000000000000000000815260040161069090610adf565b60405180910390fd5b60008251116106dd576040517f08c379a00000000000000000000000000000000000000000000000000000000081526004016106d490610adf565b60405180910390fd5b600073ffffffffffffffffffffffffffffffffffffffff163373ffffffffffffffffffffffffffffffffffffffff16141561071757600080fd5b6001600081548092919061072a90610d71565b91905055506040518060a001604052806001548152602001838152602001828152602001600081526020013373ffffffffffffffffffffffffffffffffffffffff168152506002600060015481526020019081526020016000206000820151816000015560208201518160010190805190602001906107aa929190610862565b5060408201518160020190805190602001906107c7929190610862565b506060820151816003015560808201518160040160006101000a81548173ffffffffffffffffffffffffffffffffffffffff021916908373ffffffffffffffffffffffffffffffffffffffff1602179055509050507fc1d8dfa99b3f84f95d3f0bc4a768addeb97b83b20aef7f9cb6729e126bafd2f96001548383600033604051610856959493929190610b1a565b60405180910390a15050565b82805461086e90610d3f565b90600052602060002090601f01602090048101928261089057600085556108d7565b82601f106108a957805160ff19168380011785556108d7565b828001600101855582156108d7579182015b828111156108d65782518255916020019190600101906108bb565b5b5090506108e491906108e8565b5090565b5b808211156109015760008160009055506001016108e9565b5090565b600061091861091384610c0d565b610bdc565b90508281526020810184848401111561093057600080fd5b61093b848285610cfd565b509392505050565b600082601f83011261095457600080fd5b8135610964848260208601610905565b91505092915050565b60008135905061097c81610e58565b92915050565b6000806040838503121561099557600080fd5b600083013567ffffffffffffffff8111156109af57600080fd5b6109bb85828601610943565b925050602083013567ffffffffffffffff8111156109d857600080fd5b6109e485828601610943565b9150509250929050565b600060208284031215610a0057600080fd5b6000610a0e8482850161096d565b91505092915050565b610a2081610caf565b82525050565b610a2f81610ceb565b82525050565b6000610a4082610c3d565b610a4a8185610c48565b9350610a5a818560208601610d0c565b610a6381610e47565b840191505092915050565b6000610a7b601b83610c48565b91507f506c656173652055706c6f61642061204465736372697074696f6e00000000006000830152602082019050919050565b610ab781610ce1565b82525050565b60006020820190508181036000830152610ad78184610a35565b905092915050565b60006020820190508181036000830152610af881610a6e565b9050919050565b6000602082019050610b146000830184610aae565b92915050565b600060a082019050610b2f6000830188610aae565b8181036020830152610b418187610a35565b90508181036040830152610b558186610a35565b9050610b646060830185610a26565b610b716080830184610a17565b9695505050505050565b600060a082019050610b906000830188610aae565b8181036020830152610ba28187610a35565b90508181036040830152610bb68186610a35565b9050610bc56060830185610aae565b610bd26080830184610a17565b9695505050505050565b6000604051905081810181811067ffffffffffffffff82111715610c0357610c02610e18565b5b8060405250919050565b600067ffffffffffffffff821115610c2857610c27610e18565b5b601f19601f8301169050602081019050919050565b600081519050919050565b600082825260208201905092915050565b6000610c6482610ce1565b9150610c6f83610ce1565b9250827fffffffffffffffffffffffffffffffffffffffffffffffffffffffffffffffff03821115610ca457610ca3610dba565b5b828201905092915050565b6000610cba82610cc1565b9050919050565b600073ffffffffffffffffffffffffffffffffffffffff82169050919050565b6000819050919050565b6000610cf682610ce1565b9050919050565b82818337600083830152505050565b60005b83811015610d2a578082015181840152602081019050610d0f565b83811115610d39576000848401525b50505050565b60006002820490506001821680610d5757607f821691505b60208210811415610d6b57610d6a610de9565b5b50919050565b6000610d7c82610ce1565b91507fffffffffffffffffffffffffffffffffffffffffffffffffffffffffffffffff821415610daf57610dae610dba565b5b600182019050919050565b7f4e487b7100000000000000000000000000000000000000000000000000000000600052601160045260246000fd5b7f4e487b7100000000000000000000000000000000000000000000000000000000600052602260045260246000fd5b7f4e487b7100000000000000000000000000000000000000000000000000000000600052604160045260246000fd5b6000601f19601f8301169050919050565b610e6181610ce1565b8114610e6c57600080fd5b5056fea26469706673582212206c29fd25fd0243bc5ed5994859caa00b0efb82ad60f7c38294f13753fb8b5ee464736f6c63430008000033",
  "immutableReferences": {},
  "source": "// SPDX-License-Identifier: MIT\r\npragma solidity ^0.8.0;\r\n// when we are done with the contract use 'truffle migrate --reset' if you are putting up the same smart contract\r\n\r\ncontract Decentragram {\r\n  // Code goes here...\r\n  string public name = 'Decentragram'; \r\n  // address payable author = msg.sender; \r\n\r\n\r\n  //store posts \r\n  uint public imageCount = 0; // will be used to generate user ID\r\n  mapping(uint => Image) public images; \r\n\r\n  struct Image { // Image will store all of these data values in it. Always required when using mapping\r\n    uint id; \r\n    string hash; // the hash is where the IPFS will be located\r\n    string description; \r\n    uint tipAmount; \r\n    address payable author;\r\n  }\r\n\r\n  event ImageCreated (\r\n    uint id, \r\n    string hash, \r\n    string description, \r\n    uint tipAmount, \r\n    address payable author\r\n  );\r\n\r\n  event ImageTipped (\r\n    uint id, \r\n    string hash, \r\n    string description, \r\n    uint tipAmount, \r\n    address payable author\r\n  );\r\n\r\n\r\n\r\n  // create posts \r\n  function uploadImage(string memory _imgHash, string memory _description) public {\r\n    //checks to see if description exists\r\n    require(bytes(_description).length > 0, 'Please Upload a Description');\r\n\r\n  //Checks if image hash exists\r\n   require(bytes(_imgHash).length > 0, 'Please Upload a Description');\r\n\r\n   //make sure uploader address existts \r\n   require(msg.sender != address(0x0));\r\n\r\n  // increment image id \r\n    imageCount ++; // handles ID count\r\n\r\n\r\n    images[imageCount] = Image(imageCount, _imgHash, _description, 0, payable(msg.sender));\r\n\r\n    emit ImageCreated(imageCount, _imgHash, _description, 0, payable(msg.sender));// have to explicitly put payable for msg.sender now to send money to it. in 0.5.0 it was default a payable address\r\n\r\n\r\n  }\r\n\r\n\r\n  // Tip posts function\r\n  function tipImageOwner(uint _id) public payable {// needs to have payable with public in order to pay this function cryptocurrency\r\n    //makes sure the Id is valid and that is isn't less than the images that are present\r\n    require(_id > 0 && _id <= imageCount);\r\n    \r\n    // fetch the image from the IPFS\r\n    Image memory _image = images[_id];// Image is a local variable in the memory\r\n    //fetches the author of the post\r\n    address payable _author = _image.author;\r\n   \r\n   \r\n    _author.transfer(msg.value);// msg.value is the crypto sent in to the function when it was called. \r\n  // msg.value will send the ether to the author aka the person who deployed the contract. \r\n    // this is a transfer money payment method! pay attention!\r\n    \r\n    //increment tip amount \r\n    _image.tipAmount = _image.tipAmount + msg.value; \r\n\r\n    //updates images object and tip amount\r\n    images[_id] = _image;\r\n\r\n\r\n    // trigger event \r\n    emit ImageTipped(_id, _image.hash, _image.description, _image.tipAmount, _author);\r\n\r\n  }\r\n\r\n\r\n\r\n\r\n}",
  "sourcePath": "C:\\Users\\Vilan\\OneDrive\\Desktop\\Code2.0\\DecentralizedIG\\DeSoGram\\src\\contracts\\Decentragram.sol",
  "compiler": {
    "name": "solc",
    "version": "0.8.0+commit.c7dfd78e.Emscripten.clang"
  },
  "schemaVersion": "3.4.8",
  "updatedAt": "2022-08-03T22:16:14.710Z",
  "networkType": "ethereum",
  "devdoc": {
    "kind": "dev",
    "methods": {},
    "version": 1
  },
  "userdoc": {
    "kind": "user",
    "methods": {},
    "version": 1
  }
}